:020000040800F2
:1000000020CD00209102000839380008292400087A
:1000100085340008890D00088F6C0008000000007E
:10002000000000000000000000000000A90100081E
:100030004D13000800000000390200088502000886
:10004000AB020008AB020008AB0200087D3C0008D0
:10005000AB020008AB020008AB020008AB020008CC
:10006000AB020008AB020008AB020008AB020008BC
:10007000AB020008AB020008AB020008AB020008AC
:10008000AB020008AB020008AB020008AB0200089C
:10009000AB020008AB020008AB0200088D13000899
:1000A000AB020008AB020008AB020008AB0200087C
:1000B000C9620008AB020008AB020008AB020008EE
:1000C000AB020008AB020008AB020008AB0200085C
:1000D000AB020008AB020008AB020008AB0200084C
:1000E00075130008AB020008AB020008AB02000861
:1000F000AB020008AB020008AB020008AB0200082C
:10010000AB020008293E0008AB020008AB02000861
:10011000AB020008AB020008AB020008AB0200080B
:10012000AB020008AB020008AB020008AB020008FB
:10013000DFF80CD000F092FB00480047B5890008BA
:1001400020CD002080F309887047684680F3098835
:1001500004480078C00714BF0220032080F31488ED
:100160007047000074990008DFF818C0EFF30583AA
:100170001B0618BF6047EFF31483DB0708BF604717
:1001800000DF70470D8D0008DFF818C0EFF305831E
:100190001B0618BF6047EFF31483DB0708BF6047F7
:1001A00000DF7047B58E0008EFF30980816931F8F0
:1001B000021C31F47F4128D190E80F10E047EFF3A3
:1001C000098C1A4B93E80600914219D00CB44FF0F9
:1001D000010300291FBF81F821302CE9F00FC1F87D
:1001E00024C009F00DF80CBC1A60D2F824C0BCE899
:1001F000F00F92F821308CF309881BB192F820009F
:10020000CCF800006FF0020E704710B5084A126873
:10021000914209D8074C54F8214090E80F10A047AC
:10022000EFF3098C8CE80F0010BD0000DC0000200B
:10023000A0080008A008000808F016FF134B93E878
:10024000060091421BD00CB44FF0000381F821301E
:10025000EFF3098C2CE9F00FC1F824C008F0D0FFAF
:100260000CBC1A60D2F824C0BCE8F00F8CF30988EB
:1002700092F821301BB192F82030CCF800306FF0AA
:10028000020E704709F082F8D8E70000DC00002079
:100290000648804706480047FEE7FEE7FEE7FEE720
:1002A000FEE7FEE7FEE7FEE7FEE7FEE7696200081D
:1002B00031010008A0F14101192900D82030704710
:1002C000002800DA4042704740EA01039B0703D050
:1002D00009E008C9121F08C0042AFAD203E011F885
:1002E000013B00F8013B521EF9D27047D2B201E047
:1002F00000F8012B491EFBD270470022F6E710B52B
:1003000004460846114602462046FFF7EFFF204606
:1003100010BD034600E0401C0278002AFBD111F812
:10032000012B00F8012B002AF9D11846704730B58F
:100330000EE003460A4601E05B1C521C1C7815784F
:10034000AC4201D1002CF7D115F0FF0F04D0401CB6
:100350000278002AEDD1002030BD0146002000E0E7
:10036000401C0A5C002AFBD1704710B5002200E057
:10037000521C835C8C5CA34201D1002BF8D1D8B213
:10038000E1B2401A10BD034611F8012B00F8012B11
:10039000002AF9D118467047F0B480EA0102D20F62
:1003A0004300B3EB410F02D20346084619464B0007
:1003B00042D0C30DDDB2C1F3C7542C1B202C35DA5B
:1003C000C1F3160141F4000502B16D42C4F12006EB
:1003D00005FA06F125412844B3EBD05F23D0C2B122
:1003E000012CA0EBC35009DCF0BC4FF0004202EA44
:1003F000C35200F50000DBB200F053B9400000F139
:10040000807000EBC350A0F1807040EAD1704900C9
:1004100009E0490841EAC071A0EBC35000F50000B3
:10042000400800EBC350F0BC00F032B95142012348
:1004300003EB4101801AF6E7F0BC704781F0004100
:10044000AAE780F00040A7E780EA010210B502F0B9
:100450000042400026D04B0023D04FEA106101EB50
:100460001361C0F35600C3F3560340F4000043F495
:100470000003A0FB0330A1F17F014FEA00401C0400
:1004800001D000F1010050EA134001D44000491EA0
:10049000C3B20C0604EBD010401C4008802B02D0E5
:1004A00003E0002010BD20F00100002900DA002048
:1004B000104310BD80EA010202F0004330B430F076
:1004C000004221F0004015D0A0B1C0F3C755C2F3DF
:1004D000C754C2F31601C0F31600651B41F40001B6
:1004E00040F400007D35814201D36D1C00E04900DD
:1004F000002D02DA30BC002070474FF400020024C7
:10050000814201D3091A144352084FEA4101F7D13D
:1005100051B1814202D14FF0004105E002D24FF0CB
:10052000010101E06FF0010104EBC55030BC18443B
:1005300000F0AEB8C10F80EAE0700844CA07962305
:10054000002100F0AEB896230022114600F0A9B8B1
:100550000EB540F2334102910021CDE900110A4667
:100560000B4600F0D8F803B000BD00F0004220F0C8
:100570000040C10DC0F3160040F400007F2901DAED
:1005800000207047962903DCC1F19601C84001E0C4
:1005900096398840002AF4D04042704720F000404D
:1005A000C10DC0F3160040F400007F2901DA0020DD
:1005B0007047962903DCC1F19601C840704796390F
:1005C00088407047C1F30A52C1F3130140F2FF3370
:1005D00041F480119A4201DA0020704740F233431F
:1005E0009A42A2F2334202DC524200F041B89040FB
:1005F000704700F0004230F000400DD0C10D01F511
:10060000607142EA01510022C0F31600520742EA2B
:10061000D002400711437047002001467047000098
:1006200030B5002904DB4FF00044404264EB010187
:10063000002B04DB4FF00044524264EB03038B4277
:1006400008BF824230BD000030B5002904DB4FF006
:100650000044404264EB0101002B04DB4FF00044F6
:10066000524264EB0303994208BF904230BD000040
:10067000202A04DB203A21FA02F00021704721FAF7
:1006800002F3D040C2F1200291400843194670475E
:100690000029A8BF7047401C490008BF20F0010096
:1006A000704710B4B0FA80FC00FA0CF050EA010474
:1006B00004BF10BC704749B1CCF1200421FA04F406
:1006C00011FA0CF118BF012121430843A3EB0C01DF
:1006D000CB1D0106000A002BBEBF002010BC7047D6
:1006E00000EBC35010440029A4BF10BC7047401C4D
:1006F000490008BF20F0010010BC704710B5002B66
:1007000008DA401C41F1000192185B411A4301D103
:1007100020F0010010BD2DE9F04D92469B4611B12D
:10072000B1FA81F202E0B0FA80F22032904600F095
:10073000A7F806460F4640EA0A0041EA0B01524676
:100740005B46084303D130463946BDE8F08D194673
:1007500052EA010015D0C8F140025046FFF788FF69
:1007600004460D4650465946424600F089F8084373
:1007700001D0012000E00020044345EAE075264353
:100780002F430A984FEAD625A0EB08000A304FEA1B
:1007900046534FF0000245EA47554FEAD72402D5A9
:1007A00000200146D1E7010550196141DDE9084506
:1007B00000196941BDE8F04DA0E72DE9F04D002397
:1007C0001A461B1A8A4103DB00200146BDE8F08D62
:1007D000C1F30A52C1F3130141F480154FF0000B2D
:1007E000D10702D100186D41521E0026044640F286
:1007F000FF11304601EB620A374680460246002070
:100800004FF48011FFF734FF80197941331847EB1B
:100810000102B4EB030C75EB020C04D3E41A65EB94
:10082000020506460F46241908F101006D41804675
:100830003428E3DDB11947EB0700091BA84103D2B7
:100840004FF0FF32134601E0002213461BEB060077
:1008500047EB0A51BDE8F04DFFF750BF064C074D7E
:1008600006E0E06840F0010394E807009847103480
:10087000AC42F6D3FFF760FC8C570308AC57030873
:10088000202A04DB203A00FA02F100207047914050
:10089000C2F1200320FA03F319439040704700008F
:1008A0000000000021B1826842F00102826003E092
:1008B000826822F0010282607047000000B587B0B4
:1008C00001214FF4047003F0FDF84FF4004003F0F1
:1008D000BDF80220ADF8180000208DF81B0006A915
:1008E0001B4801F09FF9002001908DF808008DF859
:1008F00009004FF4602003900020049001208DF83F
:10090000140001A9134800F049F8072301220B2124
:10091000104800F06BF801210E48FFF7C3FF0D48A7
:1009200000F0C0F800BF0B4800F02DF80028FAD105
:10093000084800F0C7F800BF064800F00DF800288E
:10094000FAD10121034800F0B2F807B000BD000061
:100950000010014000240140014600208A6812F086
:10096000040F01D0012000E0002070470146C86C50
:1009700080B270470246002013680B4201D001206C
:1009800000E000207047014600208A6812F0080F3E
:1009900001D0012000E000207047000030B5024681
:1009A0000020002350680F4C20400D790C6844EA69
:1009B00005242043506090680B4C2040D1E902543C
:1009C0002C434D7944EA450420439060D06A20F4DA
:1009D00070000C7C641EE4B2234340EA0350D062F2
:1009E00030BD0000FFFEF0FFFDF7F1FFF0B504465B
:1009F0000D4600200021092D11DDE068A5F10A0651
:100A000006EB4607072606FA07F18843A5F10A0612
:100A100006EB460603FA06F10843E0600CE02069A5
:100A200005EB4507072606FA07F1884305EB45065F
:100A300003FA06F108432061072A0FDA606B561E9D
:100A400006EB86071F2606FA07F18843561E06EBBB
:100A5000860605FA06F10843606322E00D2A0FDAE4
:100A6000206BD61F06EB86071F2606FA07F1884380
:100A7000D61F06EB860605FA06F10843206310E050
:100A8000E06AA2F10D0606EB86071F2606FA07F1BB
:100A90008843A2F10D0606EB860605FA06F1084327
:100AA000E062F0BD816841F008018160704721B1CA
:100AB000826842F4A002826003E0826822F4A0020D
:100AC00082607047816841F00401816070470000D6
:100AD0002DE9F05F06460EB9BDE8F09F34490020CD
:100AE00007F0A0FA334908700846007800B1F3E730
:100AF00001223146304807F0B5FA2E490870084601
:100B0000007800B1E8E72D4B64222D492A4807F010
:100B10006FFB28490870284807F09FF90021084614
:100B200007F080FA26482749086008460068B0F8B0
:100B3000008008460068D0F8120084B208460068B9
:100B4000D0F8160085B208460068D0F81E90084616
:100B50000068878BA8F59A40423802D1B9F1000F9E
:100B600000D0B9E7102F02D0182F00D0B4E74FF211
:100B7000DE7002F00FF8B4F5C87F13DCF02D11DC45
:100B8000AA4605EBDA704010C0F1780082B2A346A5
:100B900004EBDB704010C0F1C80081B2304605F0B4
:100BA00031F902E0304604F0EBFF00BF94E70000AB
:100BB0007CA4002050000020AAA6002054000020A1
:100BC0003C8500205800002010B5012002F09AFF5B
:100BD000002002F097FF10BD01460022014A0A449E
:100BE00010887047006C00400022024A02441160E5
:100BF00070470000006C004010B5FFF75FFE01F089
:100C0000CAF80C49087008460078012808D101F09C
:100C10002FF90446FF20A0EBE4100749087003E019
:100C200001F0C3F8044908700348007804F042FD5D
:100C300010BD000015000020160000202DE9F04333
:100C4000ADF2844D4FF001084FF000090025282235
:100C5000444901A8FFF738FB022143A000F012FD30
:100C600002214348007800F0AFFDC6B21EB90DF274
:100C7000844DBDE8F08306EB86003E4A02EBC001DE
:100C800001A8FFF746FB95A9002007F0CBF9044621
:100C900004B1ECE7012201A90CA807F0E3F904462E
:100CA00004B1E4E70020344908704AE0B8F1010FCC
:100CB00025D132490E9841F825000BAB40F25A225B
:100CC0002F490CA807F094FA044640F25A210B98D9
:100CD000884201D24FF0010904B1C8E70020284939
:100CE0000B9A8854084605F0AFF907460B9A0E9800
:100CF000801AC1190CA807F0BBF84FF00008214872
:100D0000007901281DD101F0ADF9D0B11D4840880E
:100D100078280FDA002D14DD681EC0B20546174A88
:100D200052F820100CA807F0A3F84FF001084FF07C
:100D3000000906E0B9F1000F03D1681CC5B24FF0FD
:100D400001080D4800780028B0D000200A4908703A
:100D50000CA807F082F80021084607F063F900BFED
:100D600085E70000645703082F626F6F6B00000077
:100D70000A00002090200020010000202CAB002061
:100D8000D0A800201800002000BFFEE72DE9F041A8
:100D9000AEB08046B422264901A8FFF795FA25A1F6
:100DA0004046FFF7C4FA06461EB900202EB0BDE843
:100DB000F081761C3078C0F341073078C0F3C1046D
:100DC000761C30780511012F04D0022F10D0032F8C
:100DD0002AD11BE0022C04D10DF19A0030F8150045
:100DE000E4E7032C03D110A830F81500DEE71BE080
:100DF000022C03D11FA830F81500D7E7032C04D12B
:100E00000DF1220030F81500D0E70DE0022C04D1DE
:100E10000DF15E0030F81500C8E7032C03D101A8DE
:100E200030F81500C2E700BF00BF0020BEE7000099
:100E3000B0560308FF00000001460878492818D181
:100E40004878442815D18878332812D1887940060B
:100E50000309C87900F07F0003EB8033087A00F0C3
:100E60007F0003EBC0104B7A03F07F03C2181046DB
:100E700070470020FCE710B502F03AFD0420FFF7B0
:100E8000ABFEA0F52541A53907D002F09BFE4AF242
:100E9000A5510420FFF7A8FE07E002F045FF01215D
:100EA000084602F007FF02F035FF02F031FE10BDE8
:100EB00070B504462046FFF750FAC5B2E81EC6B228
:100EC00005E0A05DFFF7F6F9A055701CC6B2AE4272
:100ED000F7DB6119C81E0FA1FFF747FA28B16119A6
:100EE000C81E0DA1FFF741FA08B9012070BD6119B4
:100EF000C81E0AA1FFF739FA08B90220F6E76119FE
:100F0000C81E07A1FFF731FA08B90320EEE7002059
:100F1000ECE700006D703300776176007478740040
:100F2000626D700070B52A2542F2107400E0641EF4
:100F300024B1802002F050FF0028F8D014B9032516
:100F4000284670BD40F2FF5002F0FEFE2846F8E74A
:100F50002DE9F04106462A274748456B01E04648FF
:100F6000456B15F0450FFAD015F0040F06D0032796
:100F7000042002F0E9FE3846BDE8F08115F0010FCB
:100F800005D00127012002F0DFFE3846F4E702F029
:100F90001DFFB04202D010273846EDE740F2FF5067
:100FA00002F0D2FE002002F037FF0446334804422C
:100FB00001D13846E0E714F0004F01D01C20DBE7F8
:100FC00014F0804F01D00920D6E714F0005F01D063
:100FD0000A20D1E714F0805F01D00B20CCE714F099
:100FE000006F01D00C20C7E714F0806F01D00D20F6
:100FF000C2E714F0807F01D00E20BDE714F4000F8B
:1010000001D00F20B8E714F4800F01D01020B3E70F
:1010100014F4001F01D01120AEE714F4801F01D09A
:101020001220A9E714F4002F01D01320A4E714F430
:10103000802F01D014209FE714F4003F01D0152029
:101040009AE714F4803F01D0162095E714F4004F7E
:1010500001D0172090E714F4804F01D018208BE7BF
:1010600014F4005F01D0192086E714F0080F01D0B6
:101070001A2081E738467FE70080014008E0FFFD45
:1010800070B52A250F48446B01E00E48446B14F0FC
:10109000450FFAD014F0040F05D00325042002F008
:1010A00053FE284670BD14F0010F05D00125012024
:1010B00002F04AFE2846F5E740F2FF5002F044FEF7
:1010C0002846EFE70080014070B52A250B48446BA5
:1010D00001E00A48446B14F0450FFAD014F0040FF5
:1010E00005D00325042002F02FFE284670BD40F2F3
:1010F000FF5002F029FE2846F8E70000008001407A
:101100002DE9F04106460F464FF02A082248456B6C
:1011100001E02148456B15F0450FFAD015F0040F9A
:1011200007D04FF00308042002F00EFE4046BDE851
:10113000F08115F0010F06D04FF00108012002F0F8
:1011400003FE4046F3E702F041FEB04203D04FF009
:1011500010084046EBE740F2FF5002F0F5FD00209A
:1011600002F05AFE044614F4604F03D1200C38807C
:101170004046DCE714F4005F01D01320D7E714F4F5
:10118000804F01D01020D2E714F4004F01D00F207F
:10119000CDE74046CBE700000080014070B52A262D
:1011A00042F210750F48446B02E06D1E0D48446B0F
:1011B00014F0450F01D1002DF7D115B114F0040F33
:1011C00005D00326042002F0BFFD304670BD14F0A8
:1011D000400F05D02A26402002F0B6FD3046F5E744
:1011E0003046F3E70080014010F0805F02D00349F1
:1011F000086001E0024948607047000004040240B2
:101200000000024021B1026842F00102026004E0E5
:1012100002684FF6FE731A400260704701460020D4
:10122000002211F0805F02D0054B1A6801E0054BE7
:101230001A680A4201D0012000E000207047000037
:10124000000402400000024010B50022026847F688
:10125000F0739A430C6A8B6823430C6923434C69EF
:1012600023438C692343CC6923434C6A23438C6A10
:1012700023431A430260CB6843600B6883604B686A
:10128000C36010BD30B58BB005460C461348FFF760
:10129000ABFF00211248FFF7B5FF124800900195FF
:1012A00000200290A0080390002004908020059068
:1012B0008000069080000790002008904FF40050B6
:1012C000099000200A9069460548FFF7BDFF0121FB
:1012D0000348FFF797FF0BB030BD000000F000108F
:1012E000440402408080014030B58BB005460C4676
:1012F0001348FFF779FF00211248FFF783FF1248D8
:101300000090019510200290A00803900020049006
:1013100080200590800006908000079000200890B3
:101320004FF40050099000200A9069460548FFF7E5
:101330008BFF01210348FFF765FF0BB030BD0000B4
:1013400000F000104404024080800140704700001B
:10135000044A116800BF034A1268521A8242FAD343
:10136000704700000400002010B502F0EBFA05F011
:1013700007FC10BD10B54FF4005000F067F818B12D
:101380004FF4005000F040F810BD000010B52020D0
:1013900000F05CF828B1202000F036F80120104958
:1013A0000871402000F052F850B1402000F02CF8B5
:1013B00040210C4800F0E2FC10B901200A490870F5
:1013C000802000F043F850B1802000F01DF880210B
:1013D000044800F0D3FC10B901200449087010BD86
:1013E0001800002000100140010000200200002031
:1013F00010B500214FF0006002F09AFA4FF4C0607F
:1014000002F06CFA10BD000001490860704700004E
:10141000140401401CB50121084602F053FB0521CC
:10142000022000F0DFFB2020FFF7EEFF00208DF808
:1014300004000C208DF805002020009001208DF87C
:101440000600684600F016F81CBD000001460020AA
:101450000022074B1B6803EA0102054B14331B688B
:101460000B4202D00AB1012000E0002070470000CA
:1014700000040140002123498279002A3AD00A461B
:10148000126803689A430B461A600A1D12680368C3
:101490009A430B1D1A60027911440A6803681A43C3
:1014A0000A60184A0832126803689A43154B0833D9
:1014B0001A601A1D126803689A43124B0C331A60A3
:1014C0004279102A0ED11A1F126803681A430D4B75
:1014D00008331A601A1D126803681A43094B0C334B
:1014E0001A600DE00749427911440A6803681A43FB
:1014F0000A6005E0027911440A6803689A430A60A9
:1015000070470000000401401CB50121084602F0AC
:10151000D9FA4FF40350FFF777FF00208DF804004D
:101520000C208DF805004FF40350009001208DF839
:1015300006006846FFF79EFF1CBD000008B50121AC
:10154000082002F0BFFA0121082002F0BBFAC020F7
:10155000ADF8000003208DF8020014208DF8030080
:101560006946024800F05EFB08BD0000000C014027
:1015700051B14FF0204252F8202042F001024FF0CA
:10158000204343F8202009E04FF0204252F8202069
:10159000034B1A404FF0204343F8202070470000CF
:1015A000FEFF0F00D0E901121143C2681143026926
:1015B00011434269114382691143C2691143026AAE
:1015C0001143426A1143826A1143C26A1143026B9A
:1015D00011434FF02043026843F822108168082924
:1015E00008D11A46016852F8211041F04001026802
:1015F00043F82210416B0968426B526841EA0211BC
:10160000426B926841EA0221426BD26841EA024190
:10161000426B126941EA0251426B526941EA02612E
:10162000426B926911430268521C4FF0204343F809
:101630002210C16AB1F5804F1AD1816B0968826BA3
:10164000526841EA0211826B926841EA0221826B80
:10165000126941EA0251826B526941EA0261826B6E
:1016600092691143026803EB8202C2F8041108E098
:101670006FF070414FF02043026803EB8202C2F822
:10168000041170472DE9F041ADF51E7D07460D466A
:101690004FF000084548CDF80E004FF48070CDF8AB
:1016A000120012A9002006F0BDFC06461EB10DF581
:1016B0001E7DBDE8F081394609A806F067FD0646A3
:1016C00006B1F4E74FF00008002454E001A909A88E
:1016D00006F072FE064616B99DF8160000B94DE0F8
:1016E0009DF816002E2800D143E09DF80C0010282C
:1016F0003ED0DDF80E00007828B9DDF80E000DF1BF
:101700001601FEF740FEDDF80E00FFF7D1FBA84200
:101710002ED1012D04D0022D1CD0032D27D10CE099
:10172000DDF80E10621C92B2144602EB8202204BCE
:1017300003EBC200FEF727FE19E0DDF80E10621C75
:1017400092B2144602EB82021A4B03EBC200FEF780
:101750001AFE0CE0DDF80E10621C92B2144602EB89
:101760008202154B03EBC200FEF70DFE00BF00BF67
:1017700000BF08F10108B8F1650FA7D300BF012D24
:1017800004D0022D08D0032D09D102E00B490C70C2
:1017900005E00B490C7002E00A490C7000BF00BF65
:1017A0000021084606F03EFC00BF80E758300020CC
:1017B00000010020C8100020902000200800002018
:1017C000090000200A0000202DE9F84F064688464F
:1017D0000024A14600254FF0010A4FF6FF7001F0EA
:1017E000D9F941F675504FF4C873142200210090C6
:1017F000084601F0D5FB41F675504FF4C87314222A
:10180000DC210090002001F0CBFB41F6755028232D
:10181000C822142100904FF4B47001F0C1FB0020E5
:1018200001F06CFD41F6755001F050FD91A20221CE
:101830000A2001F0FDF992A2DE21052001F0F8F95D
:1018400091A2DE214FF4B47001F0F2F94FF4FC6084
:1018500001F03CFD8EA220214FF4BA7001F0E8F9AE
:101860008CA2C0214FF4BA7001F0E2F900234FF4CA
:10187000C8721421184601F017FB00234FF4C872F8
:10188000DC21184601F010FB01240DE004EBC4003C
:1018900000EB0410143081B200234FF4B4721846E8
:1018A00001F002FB601C84B2082CEFDBDEE0BAF131
:1018B000000F6ED0B8F1000F6CD0B8F1010F06D058
:1018C000B8F1020F63D0B8F1030F2FD12FE001243C
:1018D00027E004EBC40000EB0410401F82B200219B
:1018E0006DA004F08FFA4FF6FF70009004EBC40077
:1018F00000EB041081B24FF4A57310221E2001F0FA
:101900004FFB601900EB8000674B03EBC00204EB58
:10191000C40000EB041081B21E2001F089F9601CA4
:1019200084B2092C02DA6019B042D2DD62E00124EF
:1019300027E004EBC40000EB0410401F82B200213A
:101940005AA004F05FFA4FF6FF70009004EBC40059
:1019500000EB041081B24FF4A57310221E2001F099
:101960001FFB601900EB8000544B03EBC00204EB3B
:10197000C40000EB041081B21E2001F059F9601C74
:1019800084B2092C02DA6019B042D2DD32E00124BF
:1019900029E046E02DE004EBC40000EB0410401FFA
:1019A00082B2002146A004F02DFA4FF6FF7000909D
:1019B00004EBC40000EB041081B24FF4A5731022B5
:1019C0001E2001F0EDFA601900EB8000404B03EBA4
:1019D000C00204EBC40000EB041081B21E2001F031
:1019E00027F9601C84B2092C02DA6019B042D2DDFA
:1019F00000E000BF00BF10E04FF6FF70009004EB66
:101A0000C40000EB0410C01E81B24FF4B47317225F
:101A1000002001F0C5FA601C84B2092CECDB4FF009
:101A2000000A2C480079012820D100F0CDF90746A2
:101A300038460A2F04D00B2803D00C2811D108E017
:101A400015E0002D02DDA5F1080085B24FF0010A76
:101A50000BE0B54202DA05F1080085B24FF0010A49
:101A600003E078191FFA80F901E000BF1FE748463C
:101A7000BDE8F88FCEC4BCFEE4AFC0C0C6F700001E
:101A8000D1A1D4F100000000B7B5BBD80000000020
:101A9000A1C40000A1C500002F69636F6E2F6D7097
:101AA000332E626D70000000000100202F69636F0B
:101AB0006E2F626D702E626D70000000C8100020E5
:101AC0002F69636F6E2F7478742E626D7000000042
:101AD000902000201800002070B505460E4668785A
:101AE000702804D10BA12846FEF74DFC03E00BA1A2
:101AF0002846FEF748FC002404E0315DE01D29542F
:101B0000601CC4B2305D0028F7D10021E01D2954CB
:101B1000284670BD2F70686F746F2F002F6D75731E
:101B200069632F0008B50121302001F0CBFF4FF48D
:101B30008850ADF8000003208DF8020018208DF8C1
:101B400003006946234800F06DF80420ADF800005A
:101B50006946214800F066F8012144F26C0001F06A
:101B6000B1FF2020ADF8000010208DF80300032005
:101B70008DF802006946194800F054F84820ADF885
:101B800000006946144800F04DF84FF46060ADF86D
:101B9000000069460F4800F045F84FF40070ADF8BA
:101BA000000018208DF8030069460D4800F03AF84F
:101BB0004FF48060ADF8000004208DF80300694602
:101BC000074800F02FF84FF46061024800F0E1F898
:101BD00008BD00000010014000140140000C01404D
:101BE0000008014030B500228B071C0F0F2303FAB9
:101BF00004F20B4B8C1053F824309343084C8D1097
:101C000044F8253023468C1053F824308C07240FD9
:101C100000FA04F42343024C8D1044F8253030BD03
:101C2000080001402DE9F041024600250026002071
:101C300000230024002791F803C00CF00F0591F851
:101C400003C01CF0100F03D091F802C04CEA050548
:101C5000B1F800C01CF0FF0F31D0146800202BE059
:101C60004FF0010C0CFA00F3B1F800C00CEA0306C7
:101C70009E4220D183004FF00F0C0CFA03F7BC43B7
:101C800005FA03FC4CEA040491F803C0BCF1280FE8
:101C900006D14FF0010C0CFA00FCC2F814C00AE0A7
:101CA00091F803C0BCF1480F05D14FF0010C0CFABC
:101CB00000FCC2F810C0401C0828D1D31460B1F851
:101CC00000C0BCF1FF0F34DD546800202EE000F1AD
:101CD000080C4FF0010808FA0CF3B1F800C00CEA48
:101CE00003069E4221D183004FF00F0C0CFA03F73C
:101CF000BC4305FA03FC4CEA040491F803C0BCF1B0
:101D0000280F05D100F1080C08FA0CF8C2F814806D
:101D100091F803C0BCF1480F07D100F1080C4FF057
:101D2000010808FA0CF8C2F81080401C0828CED32D
:101D30005460BDE8F081000008B50121112001F0D8
:101D4000C1FE4FF40350ADF8000003208DF80200EF
:101D500004208DF8030069460748FFF763FF06215A
:101D60000220FFF73FFF07210220FFF73BFF0D2175
:101D70000220FFF737FF08BD001001400246002097
:101D800093680B4201D0012000E0002070474161C0
:101D900070470161704708B5A0231E2202216846E2
:101DA00000F07CFB9DF8000008BD08B5A0231E22B2
:101DB0000221684600F072FB9DF8010008B9C820B6
:101DC00008BD9DF80100FBE710B500F04BF908B91C
:101DD000002010BD1B484088142801DA0020F8E7D5
:101DE0001848408814281DDD16484088DC2819DA78
:101DF00014480088B0F5B47F08DA12480088143817
:101E0000192190FBF1F0401CC0B2E2E70D48408878
:101E10003C2801DA0B20DCE70A484088B4280EDDB4
:101E20000C20D6E707480088282801DA0920D0E7E7
:101E300004480088B0F5B47F01DD0A20C9E700201E
:101E4000C7E700001800002038B50024A0231E2298
:101E50000421684600F022FB002505E024021DF85D
:101E600005000444681CC5B2042DF7DB204638BDCC
:101E700010B501210748FEF71AFE00BF02210548F0
:101E8000FEF778FD0028F9D00248FEF76FFD044602
:101E9000204610BD0024014010B500F0E3F808B959
:101EA000002010BD13484088232821DD11484088B8
:101EB0008C280EDA0F480088822801DA0220F0E729
:101EC0000C480088B0F5877F01DA0320E9E7042099
:101ED000E7E708480088822801DA0520E1E705489D
:101EE0000088B0F5877F01DA0620DAE70720D8E717
:101EF0000020D6E71800002010B500F0B3F808B9AC
:101F0000002010BD55484088142850DD53484088B3
:101F100028284CDA5148008851490988884208DD50
:101F20004E4801884E4800881430814201DA012071
:101F3000E7E74A4800884A494988884208DD474817
:101F40000188474840881430814201DA0220D8E7EE
:101F50004248008842498988884208DD3F48018814
:101F60003F4880881430814201DA0320C9E73B48AA
:101F700000883B49C988884208DD384801883848CC
:101F8000C0881430814201DA0420BAE7334800885F
:101F900033490989884208DD304801883048008982
:101FA0001430814201DA0520ABE70020A9E72B4875
:101FB00040883C2850DD2948408850284CDA274882
:101FC000008827490988884208DD24480188244878
:101FD00000881430814201DA062092E71F48008809
:101FE0001F494988884208DD1C4801881C484088F0
:101FF0001430814201DA072083E718480088184925
:102000008988884208DD1548018815488088143081
:10201000814201DA082074E7104800881049C98815
:10202000884208DD0D4801880D48C088143081427F
:1020300001DA092065E709480088094909898842C9
:1020400008DD06480188064800891430814201DA1B
:10205000052056E7002054E7002052E71800002032
:10206000800000202DE9F04100F042F898B31E49AD
:10207000B1F90800FEF75EFA07461C490888FEF72A
:1020800062FA8046184801684046FEF7DDF90646C8
:102090003946FEF781F90546FEF780FA13490880B4
:1020A0001149B1F90A00FEF745FA07460F49488879
:1020B000FEF749FA80460C4841684046FEF7C4F9ED
:1020C00006463946FEF768F90546FEF767FA0749FE
:1020D0004880012401E0FFE7002400200349087143
:1020E0002046BDE8F0810000CC82002018000020CE
:1020F0002DE9FF41002001F04BFC04F0BDFA0290F5
:1021000004F003FB009004F0B7FA039004F0FDFA2A
:10211000019000BF20212B48FFF730FE0028F9D0A6
:10212000012001F035FC0298B0F57F6F09DC0298C0
:10213000102806DB0098B0F57F6F02DC00981028AD
:1021400003DA002004B0BDE8F0810398FEF7F2F94D
:1021500007460298FEF7EEF980463946FEF76EF91B
:102160000646FEF746FA0446FEF7AAF8322812DCC5
:102170000198FEF7DFF907460098FEF7DBF9804685
:102180003946FEF75BF90646FEF733FA0446FEF7DA
:1021900097F8322801DD0020D4E7DDE90212881823
:1021A00000EBD071C1F34F01074A1180DDE9001245
:1021B000881800EBD071C1F34F01034A5180012010
:1021C000C0E70000001001401800002038B5A0232F
:1021D00014220421684600F061F99DF8014014F0D2
:1021E000010F02D09DF8000038BD0020FCE7000080
:1021F00010B500BF01F026FD4E4908604FF4FA60AB
:102200004D49088000BF4C48008800F09DFC58B143
:10221000484800684949884205D346480068401A42
:10222000444908600CE011E0424800684449884293
:1022300005D340480068401A3E49086000E005E0C8
:102240003D480088401C3C490880DCE700BF012075
:102250003C49087000BF3C483A490978405C3B491A
:1022600000FB01F43448008800F06EFC28B13548CA
:102270000078022801D1354804442E480068A04265
:1022800005D32C480068001B2A49086000E005E0DF
:102290002C480078401C2B490870DCE700BF25481B
:1022A00000682A49B0FBF1F0401C29490870224817
:1022B00004880A20B4FBF0F100FB114030302549BE
:1022C000C8700A20B4FBF0F4B4FBF0F100FB11403D
:1022D0003030204988700A20B4FBF0F4B4FBF0F1F0
:1022E00000FB114030301B494870164800780A2125
:1022F00090FBF1F0303017494871124800780A21FC
:1023000090FBF1F201FB1200303012498871104845
:1023100000780A2190FBF1F030300E4908720C4829
:1023200000780A2190FBF1F201FB120030300949DC
:10233000487210BD7C000020760000200085E2017C
:102340008033E10178000020A2560308805101008B
:10235000790000206600002010B501F073FC2D49C3
:102360000860084600684FF46161B0FBF1F0182185
:10237000B0FBF1F201FB1200274908702548006804
:102380003C21B0FBF1F0B0FBF1F201FB120023495C
:102390000870204800683C21B0FBF1F201FB1200FC
:1023A0001F4908701C4800780A2190FBF1F030307A
:1023B0001C490870184800780A2190FBF1F201FBD3
:1023C0001200303017494870144800780A2190FBF9
:1023D000F1F030301349C870104800780A2190FBA2
:1023E000F1F201FB120030300E4908710C48007800
:1023F0000A2190FBF1F030300A49887108480078D2
:102400000A2190FBF1F201FB120030300549C8713E
:1024100010BD00007C00002072000020730000202E
:10242000740000205C00002000BFFEE710B54021D2
:102430000B48FFF7ACFC00F05FF980210848FFF77C
:10244000A6FC00F059F940210548FFF7A2FC00F076
:1024500053F940210248FFF79AFC00F04DF910BDF6
:10246000000C014010B540210B48FFF790FC00F034
:1024700043F980210848FFF78CFC00F03DF940212A
:102480000548FFF786FC00F037F940210248FFF7C6
:102490007EFC00F031F910BD000C01402DE9F04147
:1024A00006460C4615461F4600F090F810B900206D
:1024B000BDE8F0814FF6FE71394005F4E06241EA73
:1024C000E21000F057F800F0C7F818B900F0A8F8CB
:1024D0000020EDE7E8B200F04DF800F0BDF800F0A4
:1024E00075F805F4E06147EAE11141F0010000F000
:1024F00041F800F0B1F80CE000F012F83070012C57
:1025000002D1FFF7AFFF01E0FFF790FF761C601EDE
:1025100084B2002CF0D100F083F80120C8E700005D
:1025200070B5002480211248FFF733FC002516E027
:102530006006040E40210E48FFF729FC00F0DCF88D
:1025400040210B48FFF725FC00F0D6F88021084811
:10255000FFF714FC08B144F00104681CC5B2082D53
:10256000E6DB40210248FFF712FC204670BD000068
:10257000000C014070B5044600251DE040211248C2
:10258000FFF705FC00F0B8F814F0800F04D08021AC
:102590000D48FFF7FEFB03E080210B48FFF7F7FB38
:1025A0006006040E00F0A8F840210748FFF7F1FB91
:1025B00000F0A2F8681CC5B2082DDFDB40210248FC
:1025C000FFF7E5FB70BD0000000C014010B5802155
:1025D0001248FFF7DEFB40211048FFF7DAFB00F05E
:1025E0008BF880210D48FFF7C9FB08B9002010BD0A
:1025F00080210A48FFF7CBFB00F07EF880210748D6
:10260000FFF7BCFB08B10020F1E780210348FFF78A
:10261000BEFB00F071F80120E9E70000000C01406A
:1026200010B540210B48FFF7B2FB00F065F88021A0
:102630000848FFF7ACFB00F05FF840210548FFF7C2
:10264000A8FB00F059F880210248FFF7A2FB00F038
:1026500053F810BD000C014010B540211048FFF7A1
:1026600096FB00F049F880210D48FFF792FB00F03F
:1026700043F840210A48FFF78CFB00F03DF8802129
:102680000748FFF77BFB28B140210548FFF77FFB98
:10269000002010BD40210248FFF779FB0120F8E738
:1026A000000C014070B506460C461546FFF78EFF3C
:1026B00008B9002070BD4FF6FE71294004F4E062B5
:1026C00041EAE210FFF756FFFFF7C6FF18B9FFF720
:1026D000A7FF0020EEE7E0B2FFF74CFFFFF7BCFFDB
:1026E0003046FFF747FFFFF7B7FFFFF799FF0A20D4
:1026F000FEF72EFE0120DDE7322001E0411EC8B2C8
:102700000028FBD1704700002DE9F04106462A273A
:1027100000240025524800680004524908600D203A
:102720004860402088600020C8604FF480600861E5
:10273000084601F0ABFB4C48456B01E04A48456B4D
:1027400015F0450FFAD015F0040F06D0032704202A
:1027500001F0FAFA3846BDE8F08115F0010F05D016
:102760000127012001F0F0FA3846F4E701F02EFBD2
:1027700005460D2D02D010273846ECE740F2FF50F9
:1027800001F0E2FA002001F047FB0446C4F34320C5
:1027900030703648044201D13846DCE714F0004F6F
:1027A00001D01C20D7E714F0804F01D00920D2E7D8
:1027B00014F0005F01D00A20CDE714F0805F01D053
:1027C0000B20C8E714F0006F01D00C20C3E714F011
:1027D000806F01D00D20BEE714F0807F01D00E2065
:1027E000B9E714F4000F01D00F20B4E714F4800F00
:1027F00001D01020AFE714F4001F01D01120AAE788
:1028000014F4801F01D01220A5E714F4002F01D08A
:102810001320A0E714F4802F01D014209BE714F4B8
:10282000003F01D0152096E714F4803F01D0162018
:1028300091E714F4004F01D017208CE714F4804F77
:1028400001D0182087E714F4005F01D0192082E737
:1028500014F0080F01D01A207DE738467BE700000E
:102860002C000020108500200080014008E0FFFDC2
:1028700010B50446101982B2581883B2094800886E
:10288000A0420BDB07480088904207DC05484088DF
:10289000884203DB03484088984201DD002010BDD8
:1028A0000120FCE7180000202DE9FE4F0646B08805
:1028B000FDF749FE01903088FDF745FE0090019933
:1028C000FDF7BCFD0290FDF794FE0446FDF7F8FC11
:1028D0000746F088FDF737FE01907088FDF733FE5C
:1028E00000900199FDF7AAFD0290FDF782FE0446D3
:1028F000FDF7E6FC80467F4308FB08F807EB08007D
:10290000FDF726FECDE9000106F0ACFE0446FDF71A
:1029100059FE82463189B289881A01D4014600E005
:1029200041420F467289F189501A01D4014600E0F4
:10293000414288467F4308FB08F807EB0800FDF793
:1029400007FE044606F08EFECDE90001FDF73AFED3
:1029500081464846FDF7F7FD04465046FDF7F3FD76
:1029600005462146FDF7A6FD83465846FDF741FE84
:1029700004464FF06632714BFDF752FE0ED35846B7
:10298000FDF737FE04466E4A6E4BFDF75DFE05D33C
:10299000BAF1000F02D0B9F1000F02D10020BDE85A
:1029A000FE8F31883289881A01D4014600E0414205
:1029B0000F4672887189501A01D4014600E04142E5
:1029C00088467F4308FB08F807EB0800FDF7C0FDC9
:1029D000CDE9000106F046FE0446FDF7F3FD824610
:1029E000B188B289881A01D4014600E041420F46FD
:1029F000F288F189501A01D4014600E0414288462C
:102A00007F4308FB08F807EB0800FDF7A1FDCDE9BF
:102A1000000106F027FE0446FDF7D4FD8146484636
:102A2000FDF791FD04465046FDF78DFD0546214614
:102A3000FDF740FD83465846FDF7DBFD04464FF0A9
:102A400066323E4BFDF7ECFD0ED35846FDF7D1FD47
:102A500004463B4A3B4BFDF7F7FD05D3BAF1000FA7
:102A600002D0B9F1000F01D1002098E7B188328976
:102A7000881A01D4014600E041420F46F28871896C
:102A8000501A01D4014600E0414288467F4308FBCA
:102A900008F807EB0800FDF75BFD044606F0E2FDD1
:102AA000CDE90001FDF78EFD82463188B289881A92
:102AB00001D4014600E041420F467288F189501A64
:102AC00001D4014600E0414288467F4308FB08F8F4
:102AD00007EB0800FDF73CFDCDE9000106F0C2FD63
:102AE0000446FDF76FFD81464846FDF72CFD044680
:102AF0005046FDF728FD05462146FDF7DBFC8346E1
:102B00005846FDF776FD04464FF066320B4BFDF755
:102B100087FD0ED35846FDF76CFD0446084A094B65
:102B2000FDF792FD05D3BAF1000F02D0B9F1000F05
:102B300001D1002033E7012031E700006666EE3F57
:102B4000CDCCCCCCCCCCF03F0146CA1701EB927275
:102B50009210B1EB820212D1642091FBF0F200FBE3
:102B6000121050B94FF4C87091FBF0F200FB121034
:102B700008B9012070470020FCE70120FAE7002097
:102B8000F8E710B5FFF7D8F800F092FEFEF7BCFCAE
:102B900010BD000030B5044600250021084600F0B5
:102BA0009BFB00F0B5FB00BF03E04FF0D840448032
:102BB0006D1C02488542F8D330BD0000007701004B
:102BC00008B50121080200F04DFF012140F2E1109B
:102BD00000F078FF4CF23370ADF8000003208DF860
:102BE000020018208DF8030069460D48FFF71AF817
:102BF0004FF68070ADF8000069460A48FFF712F8FA
:102C00000120ADF8000069460748FFF70BF84FF4C4
:102C10008050ADF8000069460448FFF703F808BD8E
:102C20000014014000180140001C01400020014038
:102C30002DE9F04706468A4614464FF000082CE07E
:102C40002578802D0BDA1D4800EB0512082351462C
:102C5000304600F037F806F1080086B21AE0601C32
:102C60000446077807B925E0A7F1A100A5F1A10165
:102C7000C1EB011202EB411100EB4100104901EBE5
:102C8000401910234A465146304600F01BF806F121
:102C9000100086B2641C08F10108207808B10120F8
:102CA00000E00020B8F1320F01D2012100E0002144
:102CB0000842C5D100BFBDE8F08700008C9900082C
:102CC00000EA03082DE9F04F81468A4617461C4664
:102CD000002600250AF0FF085146484600F0FCFA9D
:102CE0002E48007858BB00BF26E000F011FB0025FD
:102CF00017E0E11704EB5171C910714301EBD501E5
:102D0000795C05F0070380221A41114204D124485E
:102D1000008800F0F9FA03E02248008800F0F4FA95
:102D20006D1CA542E5D308F1010000F0FF08414603
:102D3000484600F0D1FA761C102ED6D32CE000269F
:102D400028E0CB4600251EE0E11704EB5171C910C5
:102D5000714301EBD501795C05F0070380221A412C
:102D600011420BD04146584600F0B6FA40F202201C
:102D70004FF0D84108800B48008848800BF10100D3
:102D80001FFA80FB6D1CA542DED308F1010000F0A4
:102D9000FF08761C102ED4D3BDE8F08F140000205D
:102DA00012000020100000202DE9F04306460F46D7
:102DB00090460320A0EB4809002445466EE07A19AE
:102DC00091B2321990B200F087FA00F0A1FA3548BA
:102DD000008800F099FA7A1B91B2321990B200F093
:102DE0007BFA00F095FA2F48008800F08DFA7A19E6
:102DF00091B2321B90B200F06FFA00F089FA2948C4
:102E0000008800F081FA7A1B91B2321B90B200F078
:102E100063FA00F07DFA2348008800F075FA3A1949
:102E200091B2721990B200F057FA00F071FA1D4891
:102E3000008800F069FA3A1B91B2721990B200F062
:102E40004BFA00F065FA1748008800F05DFA3A196D
:102E500091B2721B90B200F03FFA00F059FA11489B
:102E6000008800F051FA3A1B91B2721B90B200F048
:102E700033FA00F04DFA0B48008800F045FAB9F13A
:102E8000000F04DA062000EB8400814405E0601B9B
:102E90000A2101EB800081446D1E641CAC428ED976
:102EA000BDE8F083100000202DE9F04180460E4679
:102EB00015461F4600243146404600F00DFA5FB922
:102EC00000F026FA00BF04E00D48008800F01CFA6C
:102ED000641CAC42F8D310E000240CE000F018FAB7
:102EE0000748008800F010FA701C86B23146404650
:102EF00000F0F2F9641CAC42F0D3BDE8F0810000B0
:102F000010000020F0B505460E4617461C4600236B
:102F1000224631462846FFF7C7FFF01981B2002349
:102F200022462846FFF7C0FF01233A46314628468D
:102F3000FFF7BAFF291988B201233A463146FFF755
:102F4000B3FFF0BD00B597B00120019000200290C2
:102F50000220039000200490059006904FF08050CE
:102F6000079006200890002009900A9010200B90EE
:102F700000200C900E900F9010904FF48050119004
:102F8000002012901390149001A81590169008A894
:102F9000FEF708FB01210620FEF7EAFA17B000BD94
:102FA0002DE9F04780460D4616461F46DDF8209075
:102FB0000B48B0F800A0A0F80090002408E0281901
:102FC00081B200233A464046FFF76EFF601C84B290
:102FD000B442F4DB0248A0F800A0BDE8F08700008E
:102FE0001000002010B5FFF7EBFDFFF7ABFF14203A
:102FF000FEF7AEF90021084600F090F94FF4807119
:10300000012000F08BF94FF48071022000F086F966
:1030100041F21801032000F081F90121072000F09E
:103020007DF940F60801082000F078F90121092017
:1030300000F074F910210B2000F070F900210C2031
:1030400000F06CF900210F2000F068F91321102026
:1030500000F064F940F20151112000F05FF94FF4E3
:103060004071122000F05AF940F21E21202000F099
:1030700055F940F20221212000F050F94FF40041AF
:10308000902000F04BF941F2B0714FF4807000F0E5
:1030900045F940F2471140F2011000F03FF940F2CB
:1030A00035114FF4817000F039F94FF4E06140F2CE
:1030B000031000F033F9002140F2071000F02EF960
:1030C00001214FF4887000F029F900214FF40470B9
:1030D00000F024F9EF2140F2112000F01FF9002147
:1030E00040F2122000F01AF940F28F1140F2132042
:1030F00000F014F900214FF4207000F00FF90421C2
:1031000040F2812000F00AF9002140F2822000F014
:1031100005F940F201114FF4407000F0FFF840F65D
:103120002C3140F2013000F0F9F841F2300140F268
:10313000023000F0F3F843F2100140F2033000F0E7
:10314000EDF842F60B414FF4417000F0E7F840F221
:10315000011140F2053000F0E1F840F6070140F2BD
:10316000063000F0DBF84FF4E16140F2073000F088
:10317000D5F840F207114FF4427000F0CFF840F25A
:10318000051140F2093000F0C9F840F6047140F230
:103190000A3000F0C3F84FF4706140F20B3000F0D9
:1031A000BDF80F214FF4437000F0B8F840F20F4122
:1031B00040F20D3000F0B2F84FF4407140F20E30A2
:1031C00000F0ACF840F2017140F20F3000F0A6F8C8
:1031D0004FF454514FF4806000F0A0F8012140F208
:1031E000014000F09BF8002140F2044000F096F806
:1031F00000214FF4A06000F091F8002140F201504E
:1032000000F08CF8002140F2025000F087F8002115
:1032100040F2035000F082F8002140F2045000F028
:103220007DF8002140F2055000F078F800214FF4BD
:10323000C06000F073F8002140F2066000F06EF804
:1032400000214FF4DE6000F069F845F220414FF4B0
:10325000FE6000F063F8002140F2DE7000F05EF8DE
:10326000DF2140F2F27000F059F84FF4016140F2B2
:10327000F37000F053F8772140F2F47000F04EF84C
:10328000212140F2F57000F049F800214FF4FE6072
:1032900000F044F840F27311072000F03FF80021DD
:1032A0004FF4047000F03AF8EF2140F2112000F0E2
:1032B00035F8002140F2122000F030F840F28F1172
:1032C00040F2132000F02AF810BD000001490880E8
:1032D000704700001200002010B503460C4621463E
:1032E0004FF4007000F01AF840F28F10C01A81B24B
:1032F00040F2012000F012F810BD000001490880E2
:1033000070470000100000204FF0D84148807047FF
:1033100040F202204FF0D841088070474FF0D84269
:10332000108051807047000008B5002211462BA084
:1033300002F068FD4FF4FC60FFF7C8FF0020FFF7C4
:10334000DDFF2A480078012806D129A2A4214FF4E4
:103350008470FFF76DFC05E027A2A4214FF4847070
:10336000FFF766FC26A2A421BA20FFF761FC26A283
:10337000A4214FF4A370FFF75BFC4FF4FC603C23E7
:103380001922C82100906420FFF70AFE0020FFF7F1
:10339000B5FF3C231922C8216420FFF7B3FD1CA20E
:1033A000CD217220FFF744FC1B48007802F066FA3A
:1033B0004FF4FC60FA2310223C2100906420FFF7B8
:1033C000EFFD1648006800EB8000154901EBC002D4
:1033D0003C216420FFF72CFC08BD00002F69636FBF
:1033E0006E2F6D757369632E626D7000C8000020CA
:1033F000D4DDCDA300000000B2A5B7C500000000D9
:10340000C9CFD2BBCAD70000CFC2D2BBCAD7000037
:10341000C1D0B1ED00000000CA0000209C000020D7
:103420000001002029E002F0BBFD00BF1348007935
:103430000028FBD01148007901281ED1FEF72CFD91
:103440000F49087008460078801E062814D2DFE86D
:1034500000F00306090C0F1000F016F80CE000F065
:10346000A9FA09E0FDF7EAFB06E002F099FA03E0A9
:1034700002E003F093F900BF00BFD4E7180000207A
:103480000000002000BFFEE710B50120674908706A
:1034900003F09EFC03F05EFDFEF798FE64490870A1
:1034A0000846007808B946200870FFF73DFF012163
:1034B00060A0FEF7E7F8FEF7C7FC60490860084621
:1034C000006828B1084600685D490978884202D939
:1034D00001205A49086000231A4602215948DFF8A2
:1034E00068C100DF5949086085E059480079012822
:1034F0007DD1FEF7B7FD002879D019233222A02113
:10350000FF20FFF7B5F9B0B14848007848B901206D
:10351000464908704FA2A4214FF48470FFF788FB3E
:1035200065E00020414908704CA2A4214FF484704A
:10353000FFF77EFB5BE019233C22A021B420FFF7BC
:1035400097F970B13D480068012805D93B480068EB
:10355000401E3A4908604AE0394800783749086017
:1035600045E019233C22A0214800FFF781F978B1FA
:103570003248006832490978884205D22F480068ED
:10358000401C2E49086032E001202C4908602EE0E2
:10359000C82314220F211046FFF76AF978B12C498D
:1035A0004988A1F1140000EBD0714910C1F1640108
:1035B0001F4A11701046007802F060F917E01923D5
:1035C0003C22C8216420FFF753F980B1DFF894C092
:1035D00000DF01211A480078FEF7F6F8C4B20CB1FA
:1035E00016480460FFF7A0FEDFF87CC000DF14205F
:1035F000DFF878C000DF1E48007800283FF475AF80
:1036000000201B49087011480068DFF868C000DF1F
:103610000A48006802F028F80548007802F03DF8F2
:103620000021084604F0FEFC10BD0000C800002088
:10363000CA0000202F6D7573696300009C00002094
:10364000080000207936000809940008CC0000200A
:1036500018000020D4DDCDA300000000B2A5B7C53E
:1036600000000000459500086D950008618E000877
:103670000100002099940008ADF5906DC6E000BFF0
:1036800063480068C5B205EB8500624A02EBC001E1
:103690006148FEF721FA94A9002004F0C3FC074614
:1036A00000BF01225C490BA804F0DCFC074600BF08
:1036B0004FF4FC60FA2310223C2100906420FFF7B5
:1036C0006FFC05EB8500534901EBC0023C216420EF
:1036D000FFF7AEFA02AB202203A90BA804F088FD85
:1036E00003A8FDF7A9FB06462EB106F10A010BA8B7
:1036F00004F0BEFB03E000210BA804F0B9FB02AB11
:10370000202203A90BA804F073FD03A8FDF73EFBDC
:10371000044684B12046E11704EB5171CA100E999A
:10372000891B8A39B1FBF2F14FF47A72B1FBF2F1E5
:103730001FFA81F801E04FF000080021404602F036
:10374000D7FC03F045FB03F005FC3448007802F099
:1037500095F843E032480078012821D12C480068D0
:1037600085421DD102AB202203A90BA804F040FD25
:10377000074607B133E000BF4FF400612948FEF768
:10378000FDFA0028F8D0DFF8A0C000DF03A803F09E
:1037900059FCDFF898C000DF02981F280CD21EE009
:1037A0001B480068854207D00BA804F056FB002197
:1037B000084604F037FC63E71D48007801280DD166
:1037C00017480078012809D100201949087003F032
:1037D00060FA81464946404602F08AFCBAE700BFDB
:1037E0000B48006813490978884203D10120084931
:1037F000086004E006480068401C054908600BA802
:1038000004F02BFB0021084604F00CFC37E7000015
:103810009C00002000010020A0000020CA00002021
:10382000C8000020000C0140459500086D95000877
:10383000C9000020080000207047000070B500217A
:1038400000230F22C4780CB3164C246804F4E064FF
:10385000C4F5E064210AC1F10403CA40447804FAC3
:1038600003F184781440214309010F4C0678A155D7
:10387000047804F01F050124AC4005786D114FF069
:10388000E02606EB8505C5F8004109E0047804F060
:103890001F050124AC40054D0678761145F82640F9
:1038A00070BD00000CED00E000E400E080E100E00D
:1038B00008B517208DF8000000208DF801008DF864
:1038C000020001208DF803006846FFF7B7FF2820AB
:1038D0008DF800006846FFF7B1FF08BD02490143BB
:1038E000024A1160704700000000FA050CED00E08C
:1038F00008B503208DF8000000208DF801008DF838
:10390000020001208DF803006846FFF797FF08BD0D
:1039100008B531208DF8000001208DF801008DF8E8
:1039200002008DF803006846FFF788FF08BD00001D
:10393000024A0A400243024B1A60704780FFFF1F91
:1039400008ED00E008B51C208DF8000000208DF87F
:1039500001008DF8020001208DF803006846FFF792
:103960006DFF08BD08B517208DF8000000208DF808
:1039700001008DF8020001208DF803006846FFF772
:103980005DFF08BD014908627047000000000E425B
:1039900030B10749096841F02001054A116005E08E
:1039A0000349096821F02001014A116070470000B5
:1039B0000004014070B58CB00124012530221C495F
:1039C0006846FCF781FC03211AA0FDF75BFE00BFEF
:1039D00025E0012D0BD104EB8400184A02EBC00155
:1039E0006846FEF779F80646FDF772F80025144898
:1039F0000079012813D1FEF735FB80B1104800880B
:103A0000C82805DA012C0ADD601EC4B2012506E0D3
:103A10000C480078844202DA601CC4B201250A48CE
:103A200000780028D5D00020074908700CB070BD80
:103A3000745603082F70686F746F0000C810002060
:103A4000180000200900002001000020014600208D
:103A5000034A506820F4404008435060704700001B
:103A60000010024029B1064A52690243044B5A61D0
:103A700004E0034A52698243014B5A6170470000D7
:103A80000010024029B1064AD2690243044BDA61B0
:103A900004E0034AD2698243014BDA6170470000B7
:103AA0000010024029B1064A12690243044B1A6110
:103AB00004E0034A12698243014B1A617047000017
:103AC0000010024029B1064A92690243044B9A61F0
:103AD00004E0034A92698243014B9A6170470000F7
:103AE0000010024029B1064AD2680243044BDA6052
:103AF00004E0034AD2688243014BDA607047000059
:103B00000010024001490860704700004004424232
:103B10000348406A40F080700149486270470000E5
:103B20000010024010B501460022002300204A1177
:103B3000012A02D1094C236806E0022A02D1074C6F
:103B4000236A01E0054C636A01F01F0201249440DE
:103B50001C4201D0012000E0002010BD00100240F6
:103B600000210A4A11700A4A82F82010012802D066
:103B7000042808D103E00121044A117004E0052162
:103B8000024A117000E000BF00BF704720100240E1
:103B90000010024001490860704700003C044242A6
:103BA0000249096A0143014A11627047001002404C
:103BB00003490988C24392B21140014A11807047FB
:103BC0000428004010B501214FF0C050FFF75AFF04
:103BD0000120FFF7D7FEFCF7F7FF0120FFF7C0FF3A
:103BE00000BF4120FFF79EFF0028FAD04FF48070FD
:103BF000FFF7D6FF0120FFF7CDFF00F095F800F0AA
:103C000089F80121084600F055F800F083F847F6DE
:103C1000FF7000F06FF800F07DF810BD03480088D9
:103C200040F010000149088070470000042800405F
:103C3000034800884FF6EF7108400149088070473B
:103C400004280040002103480188001F008841EA41
:103C5000004070471C28004001460020064A128898
:103C60000A40D0B2044A121F12880A4202D008B198
:103C7000012000E0002070470428004010B501201A
:103C8000FFF7EAFF88B10120FFF792FF00F042F84A
:103C900001200649087006480078012805D14DF634
:103CA000FB620521F02002F0B9FA10BDC900002026
:103CB0000000002029B1074A12880243054B1A80F0
:103CC00006E0044A1288C3439BB21A40014B1A8093
:103CD000704700000028004000B50246FFF79EFF35
:103CE000100C03490880091D0A80FFF7A1FF00BDE1
:103CF0001828004000B50246FFF790FFC2F30340CA
:103D000003490880091D0A80FFF792FF00BD0000EB
:103D10000828004000BF0348008810F0200FFAD0A8
:103D20007047000004280040064800884FF6F771ED
:103D300008400449088000BF0248008810F0080FBE
:103D4000FAD070470428004001498863704700009A
:103D500000800140014988637047000000800140F5
:103D60000149086070470000A00030420149086026
:103D7000704700008C05304200210A4B02685A62ED
:103D800042689A621A46D16A21F0F701D0E902230B
:103D90001A4303691A4343691A431143014AD16222
:103DA000704700000080014000200649086048601C
:103DB0008860C86048628862C862034888630020DF
:103DC000C863704700800140FF07C00001480069D8
:103DD000C0B270470080014001460020034A526B88
:103DE0000A4201D0012000E000207047008001401D
:103DF00001460020034A526B0A4201D0012000E034
:103E000000207047008001400248006800F0030075
:103E100070470000008001400146002201480A1856
:103E2000106870471480014010B500F073FB10BD9E
:103E300029B1064AD26B0243044BDA6304E0034A19
:103E4000D26B8243014BDA6370470000008001406F
:103E500000210A4A516847F6FF629143027D836858
:103E60001A4343681A43C3681A4303681A43036931
:103E70001A431143014A516070470000008001401D
:103E80000148006870470000808001400021094B14
:103E900002689A601A46D1686FF30A01D0E90123DB
:103EA0001A43C3681A4303691A431143014AD16094
:103EB00070470000008001400549096821F00301B6
:103EC000034A116011460968014311607047000000
:103ED0000080014001490860704700008080014077
:103EE00030B501462A200022BC4B1B6881F84E30B9
:103EF000BB4B1B68A1F84C30BA4B1B681A0E9309D8
:103F00000B70C2F383034B7002F003038B70B54B4D
:103F10001B68C3F30742CA70B24B1B68C3F3072286
:103F20000A71B04B1B68DAB24A71AE4B5B681A0E6D
:103F30001301CB80AB4B5B68C3F30742CB8843EAEA
:103F40001213CB8002F00F030B72A64B5B68C3F316
:103F50000722D3094B72C2F380138B72C2F3401352
:103F6000CB72C2F300130B7300234B739B4B1B6884
:103F70001BB19A4B1B68012B3DD193071B0D0B61A5
:103F8000984B5B68DAB20B6943EA82030B61954B8D
:103F90009B681A0E0B6943EA92130B61C2F3C203CA
:103FA0000B7502F007034B758E4B9B68C3F30742FA
:103FB00053098B75C2F38203CB7593075B0F0B76A6
:103FC000884B9B68C3F307220B7E43EAD2130B7620
:103FD0000B695B1C4B640C7E4B6CA41C0125A5403B
:103FE0006B434B640C7A0123A3408B64D1E91134F9
:103FF00063434B6422E0794B1B68022B1ED1794B43
:104000005B68DAB293069B0A0B61764B9B681A0ECB
:104010000B6943EA02230B61724B9B68C3F30742AF
:104020000B6913430B616F4B9B68C3F307220B694A
:104030005B1CDB044B644FF400738B64C2F380138E
:1040400001F8193F93065B0E4B70664B9B68DAB222
:104050004B7843EAD2134B7002F07F038B70614BB5
:10406000DB681A0ED309CB70C2F341130B71C2F394
:1040700082034B7193071B0F8B715A4BDB68C3F3A1
:1040800007428B7943EA92138B71C2F34013CB71D1
:1040900000230B7202F001034B72524BDB68C3F337
:1040A0000722D3098B72C2F38013CB72C2F3401381
:1040B0000B73C2F300134B73C2F381038B7302F0D3
:1040C0000303CB73474BDB68DAB253080B7401234D
:1040D0004B74454B1B681A0ECA74A1F11901424B6F
:1040E0001B68C3F307424FEA0224CC853E4B1B6892
:1040F000C3F30722CB8D43EA0203CB853A4B1B68FF
:10410000DAB24FEA02640C63374B5B684FEA136222
:104110000B6B43EA02440C63334B5B68C3F3074207
:104120000B6B43EA02240C632F4B5B68C3F307223B
:104130000B6B43EA02030B632B4B5B68DAB24FF065
:1041400034035A54284B9B684FEA13624FF03503EF
:104150005A54254B9B68C3F307424FEA02648C63B1
:10416000214B9B68C3F307228B6B43EA02448C63A9
:104170001D4B9B68DAB28B6B43EA02248C631A4BAB
:10418000DB684FEA13628B6B43EA02038B63164BC7
:10419000DB68C3F307424FF03C035B5C43EA121455
:1041A0004FF03C035C544FEA02734FEA1354CC8740
:1041B0000D4BDB68C3F30722CB8F43EA0203CB87A7
:1041C000094BDB68DAB24FEA52044FF040035C540B
:1041D0004FF001044FF041035C5430BD2800002033
:1041E0002C000020D8840020E884002010B52A2468
:1041F000FDF798FC01218802FFF734FC0121022021
:10420000FFF730FCFFF7D0FD00F0BCF804462A2C85
:1042100001D0204610BD00F015F804462A2C01D02C
:104220002046F7E70120064908750020086048602D
:104230008860C86008610846FFF70AFE2046E9E783
:10424000F884002038B52A2401200090FFF7DCFD17
:1042500010B92524204638BD45480068042829D0D7
:1042600000204449086002204860C0208860002087
:10427000C8604FF4806008610846FFF707FEFCF74E
:10428000FFFE04462A2C01D02046E4E70020FFF779
:10429000C3FD394908600420FFF7BEFD3649486078
:1042A0000820FFF7B9FD344988600C20FFF7B4FD02
:1042B0003149C8602E48006858B12D48006801286F
:1042C00007D02B480068062803D029480068022838
:1042D00017D10020274908600320486040208860EB
:1042E0000020C8604FF4806008610846FFF7CEFDEB
:1042F00069460320FCF704FF04462A2C01D020461F
:10430000A9E71B48006804282FD0BDF800001B490E
:104310000860BDF8000000041649086009204860E4
:10432000C02088600020C8604FF4806008610846A3
:10433000FFF7ACFDFCF7A4FE04462A2C01D0204672
:1043400089E70020FFF768FD0D4908600420FFF7AA
:1043500063FD0B4948600820FFF75EFD084988604F
:104360000C20FFF759FD0649C8602A24204672E751
:104370002800002010850020E88400202C00002068
:10438000D88400202DE9F0412A24002600250027AA
:104390004FF00008B2205B490875002008604860B3
:1043A0008860C86008610846FFF752FD0320FFF7E8
:1043B00083FD0120FFF7D4FC0020534908604860CA
:1043C0008860C8604FF4806008610846FFF75EFDB2
:1043D000FCF7A8FD04462A2C02D02046BDE8F08157
:1043E0004FF4D57048490860082048604020886034
:1043F0000020C8604FF4806008610846FFF746FD62
:10440000FCF7CCFE04462A2C05D101203F49086068
:104410004FF0804812E000203B4908603720486098
:10442000402088600020C8604FF480600861084622
:10443000FFF72CFD3720FCF78BFD044600203249A6
:10444000086037204860402088600020C8604FF432
:10445000806008610846FFF719FD3720FCF778FDFA
:1044600004462A2C4CD138E0002027490860372028
:104470004860402088600020C8604FF48060086178
:104480000846FFF703FD3720FCF762FD04462A2C9F
:1044900001D02046A2E71E4848EA00001A490860F9
:1044A00029204860402088600020C8604FF4806068
:1044B00008610846FFF7EAFCFCF706FE04462A2CD2
:1044C00001D020468AE70020FFF7A6FC064601201F
:1044D00080EAD67080F001076D1C1FB94FF6FF709F
:1044E0008542C1D34FF6FF70854202D31B2420467C
:1044F00074E706F08040060002D0022003490860FD
:1045000020466BE7F884002010850020280000205A
:104510000000108070B5002400258848006801283C
:1045200067D1C003FFF764FCA8B100BF06E0FFF746
:10453000A7FC8349096841F82400641C082CF6D3C1
:104540007F48006820307E4908607E48006820303F
:104550007C4908604DE04FF48040FFF749FC00289B
:1045600047D07948006877490968401A20282BD23B
:104570007548006873490968401A10F0030F06D1A6
:10458000714800686F490968401A800806E06E4863
:1045900000686C490968401A8008401C05460024E0
:1045A0000FE06A4909680868FFF794FC641C6748D3
:1045B0000068001D6549086062480068001D614987
:1045C0000860AC42EDD314E0002406E05F490968BE
:1045D00051F82400FFF77EFC641C082CF6D35B48DE
:1045E0000068203059490860564800682030554915
:1045F00008604FF48070FFF7FBFBD8B34F480068AA
:10460000D0B10EE0FFF73CFC4D49096808604C480A
:104610000068001D4A4908604A480068001D494971
:1046200008604FF40010FFF7D7FB28B14548006839
:10463000454909688842E5D345480068012804D106
:1046400000F066FB4349087002E02A2041490870E7
:104650004FF48070FFF77EFB00214CF23A30FFF7F9
:10466000E7FB01203C4908600020364908603948D2
:10467000007870BDFFE70220FFF7BAFB70B102209F
:10468000FFF768FB00214CF23A30FFF7D1FB002026
:104690002C49086002202F490870EAE70820FFF73C
:1046A000A7FB70B10820FFF755FB00214CF23A3010
:1046B000FFF7BEFB0020234908600420254908704D
:1046C000D7E72020FFF794FB70B12020FFF742FBD3
:1046D00000214CF23A30FFF7ABFB0020194908608B
:1046E00006201C490870C4E71020FFF781FB70B159
:1046F0001020FFF72FFB00214CF23A30FFF798FB18
:10470000002010490860052012490870B1E74FF4F5
:104710000070FFF76DFB78B14FF40070FFF71AFBE4
:1047200000214CF23A30FFF783FB00200549086076
:104730000720084908709CE72A209AE730000020EB
:104740004C000020440000203400002048000020DD
:10475000380000203C000020400000202DE9F047F8
:1047600007460D4614464FF02A084FF000092E4622
:104770004FF0000A25B94FF026084046BDE8F08703
:104780002A20844908700020834908608349086012
:10479000834884490860002048608860C8600861D8
:1047A00048610846FFF7E8FA0020FFF7DFFA00202B
:1047B000FFF732FB10F0007F03D04FF00E084046A9
:1047C000DCE779480068022801D104027F0A002C46
:1047D00021DDB4F5006F1EDC601E20421BD1204697
:1047E00002F08EFE82467148046010206F494860D6
:1047F000402088600020C8604FF48060086108464F
:10480000FFF744FB1020FCF7A3FB8046B8F12A0F0A
:1048100005D04046B2E74FF026084046AEE7604874
:1048200060490860084644604FEA0A108860022028
:10483000C86000200861012048610846FFF79CFA23
:104840005648046000205A4908605A480560574895
:104850000760112055494860402088600020C860EA
:104860004FF4806008610846FFF710FB1120FCF749
:104870006FFB8046B8F12A0F01D040467EE74E48D4
:104880000068022856D111E04FF40040FFF7A4FA67
:1048900060B14FF0000905E0FFF7F2FA46F8290091
:1048A00009F10109B9F1080FF6D320364348406BEE
:1048B00040F22A610842E7D00820FFF78DFA30B1B4
:1048C0000820FFF741FA4FF00408404656E702205F
:1048D000FFF782FA30B10220FFF736FA4FF00208F4
:1048E00040464BE72020FFF777FA30B12020FFF752
:1048F0002BFA4FF00608404640E74FF40070FFF7F0
:104900006BFA38B14FF40070FFF71EFA4FF007084A
:10491000404633E703E0FFF7B3FA3060361D4FF44B
:104920000010FFF759FA0028F5D140F2FF50FFF7C9
:104930000BFA2CE020480068012813D1012148F22D
:104940002A30FFF775FA00BF1348006818B91148FC
:1049500000782A28F8D00F4800782A2817D00D4868
:1049600000780BE71448006888B9012140F22A302A
:10497000FFF75EFA0120FFF7F9F921462846FCF718
:1049800081FC00BF0E48FCF749FC0028FAD04046E5
:10499000F4E600003C00002040000020340000202D
:1049A000FFFF0F0024850020280000201085002034
:1049B000380000204C000020300000200080014022
:1049C000002000102DE9F05F81460E4614461D467A
:1049D0004FF02A084FF0000A37464FF0000B26B977
:1049E0004FF026084046BDE8F09F2A20A8490870ED
:1049F0000020A8490860A8490860A848A84908609C
:104A0000002048608860C860086148610846FFF778
:104A1000B3F90020FFF7AAF90020FFF7FDF910F025
:104A2000007F03D04FF00E084046DCE79D48006849
:104A3000022802D104024FEA5929002C21DDB4F5E5
:104A4000006F1EDC601E20421BD1204602F058FD84
:104A50008346954804601020934948604020886050
:104A60000020C8604FF4806008610846FFF70EFA26
:104A70001020FCF76DFA8046B8F12A0F05D04046A9
:104A8000B1E74FF026084046ADE7012D6FD905FB91
:104A900004F0B0F1007F03D34FF026084046A2E7B0
:104AA00005FB04F07C4908600120804908608048CB
:104AB00006607A487A49086005FB04F048604FEACE
:104AC0000B1088600220C860002008610120486146
:104AD0000846FFF751F97448C0F800901220724957
:104AE0004860402088600020C8604FF48060086102
:104AF0000846FFF7CBF91220FCF72AFA8046B8F1F6
:104B00002A0F01D040466EE76A48006802287AD131
:104B100011E04FF40040FFF75FF960B14FF0000A79
:104B200005E0FFF7ADF947F82A000AF1010ABAF1EA
:104B3000080FF6D320376048406B40F22A31084214
:104B4000E7D00820FFF748F930B10820FFF7FCF85C
:104B50004FF00408404646E70220FFF73DF938B120
:104B60000220FFF7F1F84FF0020840463BE78DE0E6
:104B70002020FFF731F930B12020FFF7E5F84FF0A2
:104B8000060840462FE74FF40070FFF725F938B1CB
:104B90004FF40070FFF7D8F84FF00708404622E7BF
:104BA00003E0FFF76DF938603F1D4FF40010FFF789
:104BB00013F90028F5D14FF48070FFF70DF918B301
:104BC0003848006838B137480068022803D03548B3
:104BD0000068012818D10020334908600C20486083
:104BE000402088600020C8604FF48060086108465B
:104BF000FFF74CF90C20FCF7ABF98046B8F12A0F0F
:104C000002D04046EFE604E040F2FF50FFF79CF888
:104C10003CE028480068012813D1012148F22A30DD
:104C2000FFF706F900BF1B48006818B9184800785C
:104C30002A28F8D0164800782A2827D01448007867
:104C4000D1E61C48006808BB012140F22A30FFF77A
:104C5000EFF80120FFF78AF805FB04F13046FCF776
:104C600011FB00BF1548FCF7D9FA0028FAD000BFA5
:104C70000848006818B9064800782A28F8D004487F
:104C800000782A2802D002480078ACE64046AAE61E
:104C90003C0000204000002034000020FFFF0F00F7
:104CA00024850020280000201085002038000020E6
:104CB0004C00002030000020008001400020001047
:104CC00070B504462A250A48046007200849486050
:104CD000402088600020C8604FF48060086108466A
:104CE000FFF7D4F80720FCF733F90546284670BDD6
:104CF0001085002001462A2019B1012901D002297E
:104D000002D1024A116000E02620704730000020E6
:104D100010B52A2400200A4908600C204860402071
:104D200088600020C8604FF4806008610846FFF783
:104D3000ADF80C20FCF70CF90446204610BD00002D
:104D4000108500202DE9FF5F82460F4614462A2574
:104D50000020039002908346002601908046009038
:104D6000B94627B92625284604B0BDE8F09F2A2079
:104D7000C54908700020C5490860C5490860C54894
:104D8000C5490860002048608860C86008614861C3
:104D90000846FEF7F1FF0020FEF7E8FF0020FFF7CE
:104DA0003BF810F0007F02D00E252846DCE7BB4818
:104DB0000068022802D104024FEA5A2A002C20DDA2
:104DC000B4F5006F1DDC601E20421AD1204602F0AF
:104DD00097FB0390B24804601020B149486040201E
:104DE00088600020C8604FF4806008610846FFF7C3
:104DF0004DF81020FCF7ACF805462A2D04D02846C3
:104E0000B2E726252846AFE7A64800680004A44973
:104E100008600D204860402088600020C8604FF482
:104E2000806008610846FFF731F80D20FCF790F824
:104E300005462A2D01D0284696E70020FEF7ECFF14
:104E40000190DFF850B21EE0ABF1010B954800680D
:104E50000004934908600D204860402088600020CD
:104E6000C8604FF4806008610846FFF70FF80D2016
:104E7000FCF76EF805462A2D01D0284674E700207D
:104E8000FEF7CAFF0190019810F4807F02D1BBF1B8
:104E9000000FD9D1BBF1000F01D1292064E7804870
:104EA000C0F800A018207E4948604020886000209B
:104EB000C8604FF4806008610846FEF7E7FF1820DD
:104EC000FCF746F805462A2D01D028464CE77048E5
:104ED0000460002074490860744807606D486E499A
:104EE0000860084644600398000188600020C8609C
:104EF0000861012048610846FEF73EFF6C480068E3
:104F000002286AD139E04FF48040FEF765FFA0B374
:104F10005F480068801B202820D25D480068801B05
:104F200010F0030F04D15A480068801B800804E089
:104F300057480068801B8008401C00904FF0000814
:104F400008E0D9F80000FEF7C5FF08F1010809F1F3
:104F50000409361D009880450FD2F2E74FF0000893
:104F600005E059F82800FEF7B5FF08F10108B8F18F
:104F7000080FF6D309F1200920364E48406B40F265
:104F80001A610842BFD00820FEF726FF28B108208A
:104F9000FEF7DAFE04252846E6E60220FEF71CFFAF
:104FA00028B10220FEF7D0FE02252846DCE61020BC
:104FB000FEF712FF28B11020FEF7C6FE0525284691
:104FC000D2E64FF40070FEF707FFE8B34FF400702D
:104FD000FEF7BAFE07252846C6E6354800680128D0
:104FE00013D1012144F21A30FEF722FF00BF2748F7
:104FF000006818B9244800782A28F8D02248007898
:105000002A2828D020480078AEE629480068D8B978
:10501000012140F21A30FEF70BFF21463846FCF71B
:1050200063F90120FEF7A2FE00BF2348FCF7F6F863
:105030000028FAD000BF1548006818B91248007857
:105040002A28F8D0104800E005E000782A2802D08D
:105050000D48007888E640F2FF50FEF775FE02A882
:10506000FDF752FB054603E002A8FDF74DFB0546A0
:105070002A2D07D19DF808000728F5D09DF80800D3
:105080000628F1D028466FE63C00002040000020B2
:1050900034000020FFFF0F0024850020280000209E
:1050A000108500202C00002038000020480000203F
:1050B0003000002000800140002000102DE9FE4F4C
:1050C0008346884614461E462A25002002900190F9
:1050D000002781460090C246B8F1000F03D1262573
:1050E0002846BDE8FE8F2A20E64908700020E649E0
:1050F0000860E6490860E648E64908600020486024
:105100008860C860086148610846FEF735FE0020E7
:10511000FEF72CFE0020FEF77FFE10F0007F02D08D
:105120000E252846DDE7DC480068022802D104028B
:105130004FEA5B2B002C20DDB4F5006F1DDC601EF8
:1051400020421AD1204602F0DBF90290D3480460D5
:105150001020D2494860402088600020C8604FF489
:10516000806008610846FEF791FE1020FBF7F0FE14
:1051700005462A2D04D02846B3E726252846B0E761
:10518000C74800680004C54908600D2048604020F9
:1051900088600020C8604FF4806008610846FEF710
:1051A00075FE0D20FBF7D4FE05462A2D01D02846BA
:1051B00097E7012E7AD906FB04F0B0F1007F02D305
:1051C000262528468DE7B448006838B1B248006803
:1051D000012803D0B048006802282FD1B0480068E9
:1051E0000004AE49086037204860402088600020F5
:1051F000C8604FF4806008610846FEF747FE37201C
:10520000FBF7A6FE05462A2D01D0284669E7A348EC
:1052100006601720A1494860402088600020C860CF
:105220004FF4806008610846FEF730FE1720FBF758
:105230008FFE05462A2D01D0284652E79748C0F830
:1052400000B0192095494860402088600020C8605F
:105250004FF4806008610846FEF718FE1920FBF73E
:1052600077FE05462A2D01D028463AE706FB04F0D2
:105270008649086001208B4908608B48C0F800808F
:1052800083488449086006FB04F0486002980001E6
:1052900088600020C8600861012048610846FEF768
:1052A0006BFD8248006802287ED13AE0D0E04FF4DE
:1052B0008040FEF791FDA0B374480068C01B202811
:1052C0000FD34FF0000905E05AF82900FEF702FE5F
:1052D00009F10109B9F1080FF6D30AF1200A2037C4
:1052E0001FE06A480068C01B10F0030F04D1674834
:1052F0000068C01B800804E064480068C01B800888
:10530000401C00904FF0000908E0DAF80000FEF7BA
:10531000E1FD09F101090AF1040A3F1D00988145E8
:10532000F3D36348406B40F21A310842BFD00820E3
:10533000FEF752FD28B10820FEF706FD0425284699
:10534000CFE60220FEF748FD28B10220FEF7FCFC64
:1053500002252846C5E61020FEF73EFD28B11020A4
:10536000FEF7F2FC05252846BBE64FF40070FEF779
:1053700033FD30B14FF40070FEF7E6FC07252846F8
:10538000AFE64FF48070FEF727FD002860D042485A
:10539000006838B140480068012803D03E480068E2
:1053A000022855D1002000E015E03C4908600C209F
:1053B0004860402088600020C8604FF48060086129
:1053C0000846FEF763FD0C20FBF7C2FD05462A2DBB
:1053D0003ED0284685E635480068012813D10121D2
:1053E00044F21A30FEF724FD00BF2748006818B9C0
:1053F000244800782A28F8D0224800782A2827D084
:10540000204800786DE62948006808BB012140F279
:105410001A30FEF70DFD0120FEF7A8FC06FB04F193
:105420004046FBF761FF00BF2248FBF7F7FE00286C
:10543000FAD000BF1448006818B9124800782A282A
:10544000F8D0104800782A2802D00E48007848E6A4
:1054500040F2FF50FEF778FC01A8FDF755F905462C
:1054600003E001A8FDF750F905462A2D07D19DF864
:1054700004000728F5D09DF804000628F1D028463E
:105480002FE600003C0000204000002034000020F7
:10549000FFFF0F0024850020280000201085002039
:1054A0002C000020380000204800002030000020A0
:1054B000008001400020001021B1028842F040022B
:1054C000028004E002884FF6BF731A4002807047E2
:1054D0000246002013890B4201D0012000E0002089
:1054E00070470146888970478181704710B5002256
:1054F000028802F441520B884C8823438C88234352
:10550000CC8823430C8923434C8923438C89234330
:10551000CC8923431A430280838B4FF2FF742340CC
:1055200083830B8A038210BD00B587B001214FF43D
:105530008E70FEF7C7FA01210846FEF7C3FA012173
:105540000803FEF7BFFAE020ADF8180003208DF83D
:105550001A0018208DF81B0006A92648FCF762FBEC
:105560004FF40060ADF8180003208DF81A001020E9
:105570008DF81B0006A92048FCF754FB2020ADF84D
:10558000180003208DF81A0048208DF81B0006A98A
:105590001A48FCF747FB2020ADF8180004208DF8CE
:1055A0001B0006A91648FCF73DFB0020ADF80400DF
:1055B0004FF48270ADF806000020ADF80800ADF899
:1055C0000A00ADF80C004FF40070ADF80E00282072
:1055D000ADF810000020ADF812000720ADF814005F
:1055E00001A90848FFF782FF01210648FFF764FF81
:1055F00007B000BD0008014000200140000C014040
:10560000001001400030014070B50446002500BF85
:1056100002210B48FFF75CFF0028F9D0214608481B
:10562000FFF762FF00BF01210548FFF751FF002887
:10563000F9D00348FFF755FFC5B2284670BD0000FA
:105640000030014010B5A0221E2105480078FDF76A
:1056500029F8A0221F2103480078FDF723F810BD88
:1056600015000020160000202DE9F0410546002419
:10567000FF260EE015B10EB1012000E00020074624
:1056800004F11E01A0223846FDF70CF8601CC4B2DC
:105690003602042CEEDBBDE8F08110B50446A022F2
:1056A00014212046FCF7FEFFA0221521FF20FCF765
:1056B000F9FF10BD10B588B0044601210920FEF79E
:1056C00001FA94B90220ADF81C0004208DF81F00E7
:1056D00003208DF81E0007A93248FCF7A3FA002129
:1056E000314800F012FE08B010BDFF2C15D1022089
:1056F000ADF81C0010208DF81F0003208DF81E004F
:1057000007A92848FCF78EFA02212648FCF741FB3E
:105710000021254800F0F9FDE5E70220ADF81C0066
:1057200018208DF81F0003208DF81E0007A91D48C2
:10573000FCF778FA01210220FEF7A4F940F2CF200D
:10574000ADF814000020ADF81000ADF81600ADF86B
:10575000120004A9144800F03DFF6020ADF80000DD
:105760000120ADF80200BDF814006043FF2190FB5A
:10577000F1F080B2ADF806000020ADF808006946EF
:10578000094800F0E1FE0821074800F017FF012159
:10579000054800F0ABFD0121034800F0B6FD00BF55
:1057A000A1E70000000C01400004004010B500F02B
:1057B00001F810BD002100202E4A126842F4803208
:1057C0002C4B1A6000BF2B4A126802F40030491CAF
:1057D00010B9B1F5A06FF6D1264A126812F4003F55
:1057E00001D0012000E00020012842D1224A1268A5
:1057F00042F01002204B1A601A46126822F003028F
:105800001A601A46126842F002021A60194A526877
:10581000184B5A601A4652685A601A46526842F447
:1058200080625A601A46526822F47C125A601A4604
:10583000526842F4E8125A601A46126842F08072C6
:105840001A6000BF0B4A126812F0007FFAD0094AB2
:10585000526822F00302074B5A601A46526842F01F
:1058600002025A6000BF034A526802F00C02082A82
:10587000F9D17047001002400020024038B50446BC
:10588000204601F045FB6006040E1F200090C4F185
:10589000D70081B2142322461846FDF781FB4FF64C
:1058A000FF700090C4F1C800C2B214230F21184643
:1058B000FDF776FB38BD00002DE9F05F07460E4688
:1058C00090469946DDE90AAB002440F63400874251
:1058D00002DCB7F5FA6F01DA4FF4FA670C2E01DC3F
:1058E000012E00DA01263846FDF72EF948B1022EC6
:1058F00007D1B8F11D0F02DCB8F1010F01DA4FF04A
:1059000001084FF4FA650AE02846FDF71DF910B1C9
:105910001F48044401E01F480444681C85B2BD428E
:10592000F2DB012510E01C48405D40F2A321484312
:1059300004EBC0143846FDF707F918B1022D01D168
:1059400016480444681C85B2B542ECDBA8F101009E
:1059500040F2A321484304EBC014C9EB4910C0EB4B
:10596000092004EB0014CAEB0A1004EB80045C4429
:1059700001214FF0C050FEF785F80120FEF702F834
:105980002046FEF7A9F9FEF7C5F9BDE8F09F000033
:105990000085E2018033E101A25603088051010035
:1059A00038B51F20FDF7F6F80020FDF7A7FC1F20F3
:1059B000FDF78CFC5AA250218220FDF739F94FF6F1
:1059C000FF70FDF783FC5BA250214FF49170FDF74F
:1059D0002FF95948007830B158A250214FF49170F6
:1059E000FDF726F912E01F20FDF770FC4DA2A02163
:1059F0009620FDF71DF95248007864214843FF21A5
:105A000090FBF1F0C5B2284600F0A0F87DE04D48CB
:105A10000079012879D1FCF725FB002875D046488C
:105A2000007840B31E231A4646218800FCF720FF69
:105A300000286AD00020404908704FF6FF70FDF73B
:105A400045FC3CA250214FF49170FDF7F1F81F2066
:105A5000FDF73CFC33A2A0219620FDF7E9F8384879
:105A6000007864214843FF2190FBF1F0C5B228463D
:105A700000F06CF849E01E231A4646218800FCF726
:105A8000F7FE08B301202C4908704FF6FF70FDF7B0
:105A90001DFC2AA250214FF49170FDF7C9F81F2078
:105AA000C8235022822100906420FDF779FAFCF788
:105AB000DFF90446FF20A0EBE410214908700846F6
:105AC0000078FFF7F7FD20E01E23C8228221642022
:105AD000FCF7CEFEC8B11B490988643901EB81008F
